{
  "contractName": "MasterChef",
  "abi": [
    {
      "inputs": [
        {
          "internalType": "contract OxSwapToken",
          "name": "_oxst",
          "type": "address"
        },
        {
          "internalType": "address",
          "name": "_devaddr",
          "type": "address"
        },
        {
          "internalType": "uint256",
          "name": "_oxstPerBlock",
          "type": "uint256"
        },
        {
          "internalType": "uint256",
          "name": "_oxstPerSecond",
          "type": "uint256"
        },
        {
          "internalType": "uint256",
          "name": "_startBlock",
          "type": "uint256"
        },
        {
          "internalType": "uint256",
          "name": "_bonusEndBlock",
          "type": "uint256"
        },
        {
          "internalType": "uint256",
          "name": "_currentBlocktime",
          "type": "uint256"
        },
        {
          "internalType": "uint256",
          "name": "_lastBlocktime",
          "type": "uint256"
        }
      ],
      "stateMutability": "nonpayable",
      "type": "constructor"
    },
    {
      "anonymous": false,
      "inputs": [
        {
          "indexed": true,
          "internalType": "address",
          "name": "user",
          "type": "address"
        },
        {
          "indexed": true,
          "internalType": "uint256",
          "name": "pid",
          "type": "uint256"
        },
        {
          "indexed": false,
          "internalType": "uint256",
          "name": "amount",
          "type": "uint256"
        }
      ],
      "name": "Deposit",
      "type": "event"
    },
    {
      "anonymous": false,
      "inputs": [
        {
          "indexed": false,
          "internalType": "uint8",
          "name": "currentAmount",
          "type": "uint8"
        }
      ],
      "name": "DevFundLowered",
      "type": "event"
    },
    {
      "anonymous": false,
      "inputs": [
        {
          "indexed": true,
          "internalType": "address",
          "name": "user",
          "type": "address"
        },
        {
          "indexed": true,
          "internalType": "uint256",
          "name": "pid",
          "type": "uint256"
        },
        {
          "indexed": false,
          "internalType": "uint256",
          "name": "amount",
          "type": "uint256"
        }
      ],
      "name": "EmergencyWithdraw",
      "type": "event"
    },
    {
      "anonymous": false,
      "inputs": [
        {
          "indexed": true,
          "internalType": "address",
          "name": "previousOwner",
          "type": "address"
        },
        {
          "indexed": true,
          "internalType": "address",
          "name": "newOwner",
          "type": "address"
        }
      ],
      "name": "OwnershipTransferred",
      "type": "event"
    },
    {
      "anonymous": false,
      "inputs": [
        {
          "indexed": false,
          "internalType": "uint256",
          "name": "OxSwapPerBlock",
          "type": "uint256"
        },
        {
          "indexed": false,
          "internalType": "uint256",
          "name": "Blocktime",
          "type": "uint256"
        }
      ],
      "name": "RewardChange",
      "type": "event"
    },
    {
      "anonymous": false,
      "inputs": [
        {
          "indexed": true,
          "internalType": "address",
          "name": "user",
          "type": "address"
        },
        {
          "indexed": true,
          "internalType": "uint256",
          "name": "pid",
          "type": "uint256"
        },
        {
          "indexed": false,
          "internalType": "uint256",
          "name": "amount",
          "type": "uint256"
        }
      ],
      "name": "Withdraw",
      "type": "event"
    },
    {
      "inputs": [],
      "name": "BONUS_MULTIPLIER",
      "outputs": [
        {
          "internalType": "uint256",
          "name": "",
          "type": "uint256"
        }
      ],
      "stateMutability": "view",
      "type": "function",
      "constant": true
    },
    {
      "inputs": [],
      "name": "OxSwap",
      "outputs": [
        {
          "internalType": "contract OxSwapToken",
          "name": "",
          "type": "address"
        }
      ],
      "stateMutability": "view",
      "type": "function",
      "constant": true
    },
    {
      "inputs": [],
      "name": "OxSwapPerBlock",
      "outputs": [
        {
          "internalType": "uint256",
          "name": "",
          "type": "uint256"
        }
      ],
      "stateMutability": "view",
      "type": "function",
      "constant": true
    },
    {
      "inputs": [],
      "name": "OxSwapPerSecond",
      "outputs": [
        {
          "internalType": "uint256",
          "name": "",
          "type": "uint256"
        }
      ],
      "stateMutability": "view",
      "type": "function",
      "constant": true
    },
    {
      "inputs": [],
      "name": "bonusEndBlock",
      "outputs": [
        {
          "internalType": "uint256",
          "name": "",
          "type": "uint256"
        }
      ],
      "stateMutability": "view",
      "type": "function",
      "constant": true
    },
    {
      "inputs": [],
      "name": "claimOwnership",
      "outputs": [],
      "stateMutability": "nonpayable",
      "type": "function"
    },
    {
      "inputs": [],
      "name": "currentBlocktime",
      "outputs": [
        {
          "internalType": "uint256",
          "name": "",
          "type": "uint256"
        }
      ],
      "stateMutability": "view",
      "type": "function",
      "constant": true
    },
    {
      "inputs": [],
      "name": "devDivisor",
      "outputs": [
        {
          "internalType": "uint8",
          "name": "",
          "type": "uint8"
        }
      ],
      "stateMutability": "view",
      "type": "function",
      "constant": true
    },
    {
      "inputs": [],
      "name": "devaddr",
      "outputs": [
        {
          "internalType": "address",
          "name": "",
          "type": "address"
        }
      ],
      "stateMutability": "view",
      "type": "function",
      "constant": true
    },
    {
      "inputs": [
        {
          "internalType": "address",
          "name": "",
          "type": "address"
        }
      ],
      "name": "isUserRegisty",
      "outputs": [
        {
          "internalType": "bool",
          "name": "",
          "type": "bool"
        }
      ],
      "stateMutability": "view",
      "type": "function",
      "constant": true
    },
    {
      "inputs": [],
      "name": "lastBlocktime",
      "outputs": [
        {
          "internalType": "uint256",
          "name": "",
          "type": "uint256"
        }
      ],
      "stateMutability": "view",
      "type": "function",
      "constant": true
    },
    {
      "inputs": [],
      "name": "lpDepositor",
      "outputs": [
        {
          "internalType": "address",
          "name": "",
          "type": "address"
        }
      ],
      "stateMutability": "view",
      "type": "function",
      "constant": true
    },
    {
      "inputs": [],
      "name": "owner",
      "outputs": [
        {
          "internalType": "address",
          "name": "",
          "type": "address"
        }
      ],
      "stateMutability": "view",
      "type": "function",
      "constant": true
    },
    {
      "inputs": [],
      "name": "pendingOwner",
      "outputs": [
        {
          "internalType": "address",
          "name": "",
          "type": "address"
        }
      ],
      "stateMutability": "view",
      "type": "function",
      "constant": true
    },
    {
      "inputs": [
        {
          "internalType": "contract IERC20",
          "name": "",
          "type": "address"
        }
      ],
      "name": "poolExistence",
      "outputs": [
        {
          "internalType": "bool",
          "name": "",
          "type": "bool"
        }
      ],
      "stateMutability": "view",
      "type": "function",
      "constant": true
    },
    {
      "inputs": [
        {
          "internalType": "uint256",
          "name": "",
          "type": "uint256"
        }
      ],
      "name": "poolInfo",
      "outputs": [
        {
          "internalType": "contract IERC20",
          "name": "lpToken",
          "type": "address"
        },
        {
          "internalType": "uint256",
          "name": "allocPoint",
          "type": "uint256"
        },
        {
          "internalType": "uint256",
          "name": "lastRewardBlock",
          "type": "uint256"
        },
        {
          "internalType": "uint256",
          "name": "accOxSwapPerShare",
          "type": "uint256"
        }
      ],
      "stateMutability": "view",
      "type": "function",
      "constant": true
    },
    {
      "inputs": [],
      "name": "rewardCollector",
      "outputs": [
        {
          "internalType": "address",
          "name": "",
          "type": "address"
        }
      ],
      "stateMutability": "view",
      "type": "function",
      "constant": true
    },
    {
      "inputs": [],
      "name": "startBlock",
      "outputs": [
        {
          "internalType": "uint256",
          "name": "",
          "type": "uint256"
        }
      ],
      "stateMutability": "view",
      "type": "function",
      "constant": true
    },
    {
      "inputs": [],
      "name": "totalAllocPoint",
      "outputs": [
        {
          "internalType": "uint256",
          "name": "",
          "type": "uint256"
        }
      ],
      "stateMutability": "view",
      "type": "function",
      "constant": true
    },
    {
      "inputs": [
        {
          "internalType": "address",
          "name": "newOwner",
          "type": "address"
        },
        {
          "internalType": "bool",
          "name": "direct",
          "type": "bool"
        },
        {
          "internalType": "bool",
          "name": "renounce",
          "type": "bool"
        }
      ],
      "name": "transferOwnership",
      "outputs": [],
      "stateMutability": "nonpayable",
      "type": "function"
    },
    {
      "inputs": [
        {
          "internalType": "uint256",
          "name": "",
          "type": "uint256"
        },
        {
          "internalType": "address",
          "name": "",
          "type": "address"
        }
      ],
      "name": "userInfo",
      "outputs": [
        {
          "internalType": "uint256",
          "name": "amount",
          "type": "uint256"
        },
        {
          "internalType": "uint256",
          "name": "rewardDebt",
          "type": "uint256"
        }
      ],
      "stateMutability": "view",
      "type": "function",
      "constant": true
    },
    {
      "inputs": [],
      "name": "poolLength",
      "outputs": [
        {
          "internalType": "uint256",
          "name": "",
          "type": "uint256"
        }
      ],
      "stateMutability": "view",
      "type": "function",
      "constant": true
    },
    {
      "inputs": [],
      "name": "updateBlockIssuanceWithBlocktime",
      "outputs": [],
      "stateMutability": "nonpayable",
      "type": "function"
    },
    {
      "inputs": [
        {
          "internalType": "uint256",
          "name": "_currentBlocktime",
          "type": "uint256"
        }
      ],
      "name": "changeBlocktime",
      "outputs": [],
      "stateMutability": "nonpayable",
      "type": "function"
    },
    {
      "inputs": [
        {
          "internalType": "uint256",
          "name": "_allocPoint",
          "type": "uint256"
        },
        {
          "internalType": "contract IERC20",
          "name": "_lpToken",
          "type": "address"
        },
        {
          "internalType": "bool",
          "name": "_withUpdate",
          "type": "bool"
        }
      ],
      "name": "add",
      "outputs": [],
      "stateMutability": "nonpayable",
      "type": "function"
    },
    {
      "inputs": [
        {
          "internalType": "uint256",
          "name": "_pid",
          "type": "uint256"
        },
        {
          "internalType": "uint256",
          "name": "_allocPoint",
          "type": "uint256"
        },
        {
          "internalType": "bool",
          "name": "_withUpdate",
          "type": "bool"
        }
      ],
      "name": "set",
      "outputs": [],
      "stateMutability": "nonpayable",
      "type": "function"
    },
    {
      "inputs": [
        {
          "internalType": "uint256",
          "name": "_from",
          "type": "uint256"
        },
        {
          "internalType": "uint256",
          "name": "_to",
          "type": "uint256"
        }
      ],
      "name": "getMultiplier",
      "outputs": [
        {
          "internalType": "uint256",
          "name": "",
          "type": "uint256"
        }
      ],
      "stateMutability": "view",
      "type": "function",
      "constant": true
    },
    {
      "inputs": [
        {
          "internalType": "uint256",
          "name": "_pid",
          "type": "uint256"
        },
        {
          "internalType": "address",
          "name": "_user",
          "type": "address"
        }
      ],
      "name": "pendingOxSwap",
      "outputs": [
        {
          "internalType": "uint256",
          "name": "",
          "type": "uint256"
        }
      ],
      "stateMutability": "view",
      "type": "function",
      "constant": true
    },
    {
      "inputs": [
        {
          "internalType": "uint256",
          "name": "_pid",
          "type": "uint256"
        },
        {
          "internalType": "address",
          "name": "_user",
          "type": "address"
        }
      ],
      "name": "amountStaked",
      "outputs": [
        {
          "internalType": "uint256",
          "name": "",
          "type": "uint256"
        }
      ],
      "stateMutability": "view",
      "type": "function",
      "constant": true
    },
    {
      "inputs": [],
      "name": "massUpdatePools",
      "outputs": [],
      "stateMutability": "nonpayable",
      "type": "function"
    },
    {
      "inputs": [
        {
          "internalType": "uint256",
          "name": "_pid",
          "type": "uint256"
        }
      ],
      "name": "updatePool",
      "outputs": [],
      "stateMutability": "nonpayable",
      "type": "function"
    },
    {
      "inputs": [
        {
          "internalType": "uint256",
          "name": "_pid",
          "type": "uint256"
        },
        {
          "internalType": "uint256",
          "name": "_amount",
          "type": "uint256"
        }
      ],
      "name": "deposit",
      "outputs": [],
      "stateMutability": "nonpayable",
      "type": "function"
    },
    {
      "inputs": [
        {
          "internalType": "uint256",
          "name": "_pid",
          "type": "uint256"
        },
        {
          "internalType": "uint256",
          "name": "_amount",
          "type": "uint256"
        },
        {
          "internalType": "address",
          "name": "_user",
          "type": "address"
        }
      ],
      "name": "extDeposit",
      "outputs": [],
      "stateMutability": "nonpayable",
      "type": "function"
    },
    {
      "inputs": [
        {
          "internalType": "uint256",
          "name": "_pid",
          "type": "uint256"
        },
        {
          "internalType": "uint256",
          "name": "_amount",
          "type": "uint256"
        }
      ],
      "name": "withdraw",
      "outputs": [],
      "stateMutability": "nonpayable",
      "type": "function"
    },
    {
      "inputs": [
        {
          "internalType": "uint256",
          "name": "_pid",
          "type": "uint256"
        },
        {
          "internalType": "address",
          "name": "_user",
          "type": "address"
        }
      ],
      "name": "extWithdraw",
      "outputs": [],
      "stateMutability": "nonpayable",
      "type": "function"
    },
    {
      "inputs": [],
      "name": "collectAll",
      "outputs": [],
      "stateMutability": "nonpayable",
      "type": "function"
    },
    {
      "inputs": [
        {
          "internalType": "uint256",
          "name": "_pid",
          "type": "uint256"
        }
      ],
      "name": "emergencyWithdraw",
      "outputs": [],
      "stateMutability": "nonpayable",
      "type": "function"
    },
    {
      "inputs": [],
      "name": "lowerDevFund",
      "outputs": [],
      "stateMutability": "nonpayable",
      "type": "function"
    },
    {
      "inputs": [
        {
          "internalType": "address",
          "name": "_devaddr",
          "type": "address"
        }
      ],
      "name": "dev",
      "outputs": [],
      "stateMutability": "nonpayable",
      "type": "function"
    },
    {
      "inputs": [
        {
          "internalType": "address",
          "name": "_collectoraddr",
          "type": "address"
        }
      ],
      "name": "collector",
      "outputs": [],
      "stateMutability": "nonpayable",
      "type": "function"
    },
    {
      "inputs": [
        {
          "internalType": "address",
          "name": "_depositoraddr",
          "type": "address"
        }
      ],
      "name": "depositor",
      "outputs": [],
      "stateMutability": "nonpayable",
      "type": "function"
    }
  ],
  "bytecode": "0x60806040526004805460ff60a01b1916600160a31b1790556000600e5534801561002857600080fd5b50604051612b39380380612b39833981810160405261010081101561004c57600080fd5b50805160208201516040808401516060850151608086015160a087015160c088015160e090980151600080546001600160a01b03191633908117825596519899979895979496939592949391927f8be0079c531659141344cd1fd0a4f28419497f9722a3daafe3b4186f6b6457e0908290a36001600255600380546001600160a01b03998a166001600160a01b0319918216179091556004805498909916978116881790985560058054909816909617909655600893909355600991909155600791909155600f55601191909155601055612a0d8061012c6000396000f3fe608060405234801561001057600080fd5b50600436106102535760003560e01c806364482f7911610146578063a1066bd4116100c3578063d49e77cd11610087578063d49e77cd14610631578063d5688d8314610639578063e2bbb15814610656578063e30c397814610679578063ef69b4a814610681578063fcba908c1461068957610253565b8063a1066bd41461057f578063ab1bbd48146105ab578063afffd5b7146105d1578063cab3c392146105d9578063cbd258b51461060b57610253565b80638dbb1e3a1161010a5780638dbb1e3a146104ff57806393f1a40b14610522578063946a37d314610567578063952c96fb1461056f57806395fae40c1461057757610253565b806364482f79146104965780636b61a19f146104c15780638aa28550146104c95780638d88a90e146104d15780638da5cb5b146104f757610253565b80633a40799e116101d457806351eb05a61161019857806351eb05a6146104445780635312ea8e146104615780635cce7b351461047e57806361cf753b14610486578063630b5ba11461048e57610253565b80633a40799e146103c7578063441a3e70146103e557806348cd4cb1146104085780634e71e0c8146104105780634e9ad15a1461041857610253565b80631aed65531161021b5780631aed6553146103235780631d78b5421461032b5780631eaaa045146103335780632e7a3f1e14610367578063387e971c146103a157610253565b806302f283be14610258578063078dfbe71461027c578063081e3eda146102b45780631526fe27146102ce57806317caf6f11461031b575b600080fd5b6102606106b5565b604080516001600160a01b039092168252519081900360200190f35b6102b26004803603606081101561029257600080fd5b506001600160a01b038135169060208101351515906040013515156106c4565b005b6102bc6107fa565b60408051918252519081900360200190f35b6102eb600480360360208110156102e457600080fd5b5035610800565b604080516001600160a01b0390951685526020850193909352838301919091526060830152519081900360800190f35b6102bc610841565b6102bc610847565b61026061084d565b6102b26004803603606081101561034957600080fd5b508035906001600160a01b036020820135169060400135151561085c565b61038d6004803603602081101561037d57600080fd5b50356001600160a01b0316610b22565b604080519115158252519081900360200190f35b6102b2600480360360208110156103b757600080fd5b50356001600160a01b0316610b37565b6103cf610bc3565b6040805160ff9092168252519081900360200190f35b6102b2600480360360408110156103fb57600080fd5b5080359060200135610bd3565b6102bc610dc2565b6102b2610dc8565b6102b26004803603604081101561042e57600080fd5b50803590602001356001600160a01b0316610e8a565b6102b26004803603602081101561045a57600080fd5b503561107a565b6102b26004803603602081101561047757600080fd5b50356112f8565b6102b261142d565b6102bc61153a565b6102b2611540565b6102b2600480360360608110156104ac57600080fd5b5080359060208101359060400135151561155f565b6102bc611670565b6102bc611676565b6102b2600480360360208110156104e757600080fd5b50356001600160a01b031661167b565b6102606116f1565b6102bc6004803603604081101561051557600080fd5b5080359060200135611700565b61054e6004803603604081101561053857600080fd5b50803590602001356001600160a01b031661176c565b6040805192835260208301919091528051918290030190f35b6102bc611790565b6102b2611796565b6102bc6117bd565b6102bc6004803603604081101561059557600080fd5b50803590602001356001600160a01b03166117c3565b6102b2600480360360208110156105c157600080fd5b50356001600160a01b031661183a565b6102606118c6565b6102b2600480360360608110156105ef57600080fd5b50803590602081013590604001356001600160a01b03166118d5565b61038d6004803603602081101561062157600080fd5b50356001600160a01b0316611ba7565b610260611bbc565b6102b26004803603602081101561064f57600080fd5b5035611bcb565b6102b26004803603604081101561066c57600080fd5b5080359060200135611cdb565b610260611f5a565b6102b2611f69565b6102bc6004803603604081101561069f57600080fd5b50803590602001356001600160a01b031661206b565b6006546001600160a01b031681565b6000546001600160a01b03163314610711576040805162461bcd60e51b8152602060048201819052602482015260008051602061298e833981519152604482015290519081900360640190fd5b81156107d9576001600160a01b03831615158061072b5750805b610774576040805162461bcd60e51b81526020600482015260156024820152744f776e61626c653a207a65726f206164647265737360581b604482015290519081900360640190fd5b600080546040516001600160a01b03808716939216917f8be0079c531659141344cd1fd0a4f28419497f9722a3daafe3b4186f6b6457e091a3600080546001600160a01b0385166001600160a01b0319918216179091556001805490911690556107f5565b600180546001600160a01b0319166001600160a01b0385161790555b505050565b600a5490565b600a818154811061080d57fe5b600091825260209091206004909102018054600182015460028301546003909301546001600160a01b039092169350919084565b600e5481565b60075481565b6003546001600160a01b031681565b6000546001600160a01b031633146108a9576040805162461bcd60e51b8152602060048201819052602482015260008051602061298e833981519152604482015290519081900360640190fd5b816000816001600160a01b03166370a08231306040518263ffffffff1660e01b815260040180826001600160a01b0316815260200191505060206040518083038186803b1580156108f957600080fd5b505afa92505050801561091e57506040513d602081101561091957600080fd5b505160015b61092a57506000610930565b50600190505b6001600160a01b0382166000908152600d602052604090205460ff16156109885760405162461bcd60e51b815260040180806020018281038252602381526020018061294a6023913960400191505060405180910390fd5b6001811515146109df576040805162461bcd60e51b815260206004820152601d60248201527f43616e27742063616c6c2062616c616e63654f662e205265766572742e000000604482015290519081900360640190fd5b82156109ed576109ed611540565b6000600f544311610a0057600f54610a02565b435b600e54909150610a12908761221a565b600e556001600160a01b039485166000818152600d602090815260408083208054600160ff1990911681179091558151608081018352948552918401998a52830193845260608301818152600a8054928301815590925291517fc65a7bb8d6351c1cf70c95a316cc6a92839c986682d98bc35f958f4883f9d2a8600490930292830180546001600160a01b031916919098161790965595517fc65a7bb8d6351c1cf70c95a316cc6a92839c986682d98bc35f958f4883f9d2a9870155517fc65a7bb8d6351c1cf70c95a316cc6a92839c986682d98bc35f958f4883f9d2aa860155505090517fc65a7bb8d6351c1cf70c95a316cc6a92839c986682d98bc35f958f4883f9d2ab9092019190915550565b600c6020526000908152604090205460ff1681565b6006546001600160a01b0316331480610b5a57506004546001600160a01b031633145b610ba1576040805162461bcd60e51b815260206004820152601360248201527202a3432903232bb1039b0bcb99d102737b7171606d1b604482015290519081900360640190fd5b600680546001600160a01b0319166001600160a01b0392909216919091179055565b600454600160a01b900460ff1681565b600a5482908110610c1d576040805162461bcd60e51b815260206004820152600f60248201526e12539590531251081413d3d3081251608a1b604482015290519081900360640190fd5b600280541415610c62576040805162461bcd60e51b815260206004820152601f60248201526000805160206128e2833981519152604482015290519081900360640190fd5b600280819055506000600a8481548110610c7857fe5b60009182526020808320878452600b825260408085203386529092529220805460049092029092019250841115610ceb576040805162461bcd60e51b81526020600482015260126024820152711dda5d1a191c985dce881b9bdd0819dbdbd960721b604482015290519081900360640190fd5b610cf48561107a565b6000610d2e8260010154610d2864e8d4a51000610d228760030154876000015461227b90919063ffffffff16565b906122d4565b9061233b565b9050610d3a3382612398565b8154610d46908661233b565b8083556003840154610d639164e8d4a5100091610d22919061227b565b60018301558254610d7e906001600160a01b0316338761256b565b604080518681529051879133917ff279e6a1f5e320cca91135676d9cb6e44ca8a08c0b88342bcdb1144f6511b5689181900360200190a35050600160025550505050565b600f5481565b6001546001600160a01b0316338114610e28576040805162461bcd60e51b815260206004820181905260248201527f4f776e61626c653a2063616c6c657220213d2070656e64696e67206f776e6572604482015290519081900360640190fd5b600080546040516001600160a01b03808516939216917f8be0079c531659141344cd1fd0a4f28419497f9722a3daafe3b4186f6b6457e091a3600080546001600160a01b039092166001600160a01b0319928316179055600180549091169055565b6005546001600160a01b03163314610ea157600080fd5b600a5482908110610eeb576040805162461bcd60e51b815260206004820152600f60248201526e12539590531251081413d3d3081251608a1b604482015290519081900360640190fd5b600280541415610f30576040805162461bcd60e51b815260206004820152601f60248201526000805160206128e2833981519152604482015290519081900360640190fd5b60028081905550600080600a8581548110610f4757fe5b60009182526020808320888452600b825260408085206001600160a01b038a1686529092529220805460049092029092019250831115610fc3576040805162461bcd60e51b81526020600482015260126024820152711dda5d1a191c985dce881b9bdd0819dbdbd960721b604482015290519081900360640190fd5b610fcc8661107a565b6000610ffa8260010154610d2864e8d4a51000610d228760030154876000015461227b90919063ffffffff16565b9050801561100c5761100c8682612398565b600383015482546110279164e8d4a5100091610d229161227b565b600183015560408051858152905188916001600160a01b038916917ff279e6a1f5e320cca91135676d9cb6e44ca8a08c0b88342bcdb1144f6511b5689181900360200190a3505060016002555050505050565b600a54819081106110c4576040805162461bcd60e51b815260206004820152600f60248201526e12539590531251081413d3d3081251608a1b604482015290519081900360640190fd5b6000600a83815481106110d357fe5b90600052602060002090600402019050806002015443116110f457506112f4565b8054604080516370a0823160e01b815230600482015290516000926001600160a01b0316916370a08231916024808301926020929190829003018186803b15801561113e57600080fd5b505afa158015611152573d6000803e3d6000fd5b505050506040513d602081101561116857600080fd5b505190508061117e5750436002909101556112f4565b600061118e836002015443611700565b905060006111bb600e54610d2286600101546111b56008548761227b90919063ffffffff16565b9061227b565b6003546004549192506001600160a01b03908116916340c10f19918116906111ee908590600160a01b900460ff166122d4565b6040518363ffffffff1660e01b815260040180836001600160a01b0316815260200182815260200192505050600060405180830381600087803b15801561123457600080fd5b505af1158015611248573d6000803e3d6000fd5b5050600354604080516340c10f1960e01b81523060048201526024810186905290516001600160a01b0390921693506340c10f19925060448082019260009290919082900301818387803b15801561129f57600080fd5b505af11580156112b3573d6000803e3d6000fd5b505050506112e16112d684610d2264e8d4a510008561227b90919063ffffffff16565b60038601549061221a565b6003850155505043600290920191909155505b5050565b600a5481908110611342576040805162461bcd60e51b815260206004820152600f60248201526e12539590531251081413d3d3081251608a1b604482015290519081900360640190fd5b600280541415611387576040805162461bcd60e51b815260206004820152601f60248201526000805160206128e2833981519152604482015290519081900360640190fd5b600280819055506000600a838154811061139d57fe5b60009182526020808320868452600b825260408085203380875293529093208054600490930290930180549094506113e2926001600160a01b0391909116919061256b565b80546040805191825251859133917fbb757047c2b5f3974fe26b7c10f732e7bce710b0952a71082702781e62ae05959181900360200190a36000808255600191820155600255505050565b6000546001600160a01b0316331461147a576040805162461bcd60e51b8152602060048201819052602482015260008051602061298e833981519152604482015290519081900360640190fd5b60115460105414156114d3576040805162461bcd60e51b815260206004820181905260248201527f4f78537761703a20426c6f636b74696d65206861736e2774206368616e676564604482015290519081900360640190fd5b6114f06103e8610d2260095460115461227b90919063ffffffff16565b6008819055601154601081905560408051928352602083019190915280517ff84fdc31bbfc176687fb0c295c02db5def2e1e50c89107ab0d4be860a3d1bdd99281900390910190a1565b60105481565b600a5460005b818110156112f4576115578161107a565b600101611546565b6000546001600160a01b031633146115ac576040805162461bcd60e51b8152602060048201819052602482015260008051602061298e833981519152604482015290519081900360640190fd5b600a54839081106115f6576040805162461bcd60e51b815260206004820152600f60248201526e12539590531251081413d3d3081251608a1b604482015290519081900360640190fd5b811561160457611604611540565b6116418361163b600a878154811061161857fe5b906000526020600020906004020160010154600e5461233b90919063ffffffff16565b9061221a565b600e8190555082600a858154811061165557fe5b90600052602060002090600402016001018190555050505050565b60115481565b600181565b6004546001600160a01b031633146116cf576040805162461bcd60e51b81526020600482015260126024820152712a3432902232bb1039b0bcb99d102737b71760711b604482015290519081900360640190fd5b600480546001600160a01b0319166001600160a01b0392909216919091179055565b6000546001600160a01b031681565b600060075482116117215761171a60016111b5848661233b565b9050611766565b60075483106117345761171a828461233b565b61171a61174c6007548461233b90919063ffffffff16565b61163b60016111b58760075461233b90919063ffffffff16565b92915050565b600b6020908152600092835260408084209091529082529020805460019091015482565b60095481565b60005b600a54600019018110156117ba576117b2816000610bd3565b600101611799565b50565b60085481565b600a5460009083908110611810576040805162461bcd60e51b815260206004820152600f60248201526e12539590531251081413d3d3081251608a1b604482015290519081900360640190fd5b50506000918252600b602090815260408084206001600160a01b0393909316845291905290205490565b6005546001600160a01b031633148061185d57506004546001600160a01b031633145b6118a4576040805162461bcd60e51b815260206004820152601360248201527202a3432902232bb1039b0bcb99d102737b7171606d1b604482015290519081900360640190fd5b600580546001600160a01b0319166001600160a01b0392909216919091179055565b6005546001600160a01b031681565b6006546001600160a01b031633146118ec57600080fd5b600a5483908110611936576040805162461bcd60e51b815260206004820152600f60248201526e12539590531251081413d3d3081251608a1b604482015290519081900360640190fd5b60028054141561197b576040805162461bcd60e51b815260206004820152601f60248201526000805160206128e2833981519152604482015290519081900360640190fd5b600280819055506000600a858154811061199157fe5b60009182526020808320888452600b825260408085206001600160a01b03891686529092529220600490910290910191506119cb8661107a565b805415611a14576000611a008260010154610d2864e8d4a51000610d228760030154876000015461227b90919063ffffffff16565b90508015611a1257611a128582612398565b505b8415611b43578154604080516370a0823160e01b815230600482015290516000926001600160a01b0316916370a08231916024808301926020929190829003018186803b158015611a6457600080fd5b505afa158015611a78573d6000803e3d6000fd5b505050506040513d6020811015611a8e57600080fd5b50518354909150611aaa906001600160a01b03163330896125bd565b8254604080516370a0823160e01b81523060048201529051600092611b2f9285926001600160a01b03909216916370a0823191602480820192602092909190829003018186803b158015611afd57600080fd5b505afa158015611b11573d6000803e3d6000fd5b505050506040513d6020811015611b2757600080fd5b50519061233b565b8354909150611b3e908261221a565b835550505b60038201548154611b5e9164e8d4a5100091610d229161227b565b6001820155604080518681529051879133917f90890809c654f11d6e72a28fa60149770a0d11ec6c92319d6ceb2bb0a4ea1a159181900360200190a35050600160025550505050565b600d6020526000908152604090205460ff1681565b6004546001600160a01b031681565b6000546001600160a01b03163314611c18576040805162461bcd60e51b8152602060048201819052602482015260008051602061298e833981519152604482015290519081900360640190fd5b806010541415611c6f576040805162461bcd60e51b815260206004820181905260248201527f4f78537761703a20426c6f636b74696d65206861736e2774206368616e676564604482015290519081900360640190fd5b610fa0811115611cc6576040805162461bcd60e51b815260206004820152601b60248201527f43616e27742073657420626c6f636b696d65206f7665722034732e0000000000604482015290519081900360640190fd5b611cce611540565b60118190556117ba61142d565b600a5482908110611d25576040805162461bcd60e51b815260206004820152600f60248201526e12539590531251081413d3d3081251608a1b604482015290519081900360640190fd5b600280541415611d6a576040805162461bcd60e51b815260206004820152601f60248201526000805160206128e2833981519152604482015290519081900360640190fd5b600280819055506000600a8481548110611d8057fe5b60009182526020808320878452600b82526040808520338652909252922060049091029091019150611db18561107a565b805415611dfa576000611de68260010154610d2864e8d4a51000610d228760030154876000015461227b90919063ffffffff16565b90508015611df857611df83382612398565b505b8315611ef7578154604080516370a0823160e01b815230600482015290516000926001600160a01b0316916370a08231916024808301926020929190829003018186803b158015611e4a57600080fd5b505afa158015611e5e573d6000803e3d6000fd5b505050506040513d6020811015611e7457600080fd5b50518354909150611e90906001600160a01b03163330886125bd565b8254604080516370a0823160e01b81523060048201529051600092611ee39285926001600160a01b03909216916370a0823191602480820192602092909190829003018186803b158015611afd57600080fd5b8354909150611ef2908261221a565b835550505b60038201548154611f129164e8d4a5100091610d229161227b565b6001820155604080518581529051869133917f90890809c654f11d6e72a28fa60149770a0d11ec6c92319d6ceb2bb0a4ea1a159181900360200190a350506001600255505050565b6001546001600160a01b031681565b6000546001600160a01b03163314611fb6576040805162461bcd60e51b8152602060048201819052602482015260008051602061298e833981519152604482015290519081900360640190fd5b60045460ff600160a01b90910481161061200a576040805162461bcd60e51b815260206004820152601060248201526f546861747320697420466f6c6b73202160801b604482015290519081900360640190fd5b6004805460ff600160a01b80830482166001018216810260ff60a01b199093169290921792839055604080519290930416815290517fee9c626a5ecbf59c6fa35d3ea1ada36622db84d50bcca6e2e2880627f38388739181900360200190a1565b600a54600090839081106120b8576040805162461bcd60e51b815260206004820152600f60248201526e12539590531251081413d3d3081251608a1b604482015290519081900360640190fd5b6000600a85815481106120c757fe5b60009182526020808320888452600b825260408085206001600160a01b038a8116875290845281862060049586029093016003810154815484516370a0823160e01b81523098810198909852935191985093969395939492909116926370a08231926024808301939192829003018186803b15801561214557600080fd5b505afa158015612159573d6000803e3d6000fd5b505050506040513d602081101561216f57600080fd5b505160028501549091504311801561218657508015155b156121e657600061219b856002015443611700565b905060006121c2600e54610d2288600101546111b56008548761227b90919063ffffffff16565b90506121e16121da84610d228464e8d4a5100061227b565b859061221a565b935050505b61220e8360010154610d2864e8d4a51000610d2286886000015461227b90919063ffffffff16565b98975050505050505050565b600082820183811015612274576040805162461bcd60e51b815260206004820152601b60248201527f536166654d6174683a206164646974696f6e206f766572666c6f770000000000604482015290519081900360640190fd5b9392505050565b60008261228a57506000611766565b8282028284828161229757fe5b04146122745760405162461bcd60e51b815260040180806020018281038252602181526020018061296d6021913960400191505060405180910390fd5b600080821161232a576040805162461bcd60e51b815260206004820152601a60248201527f536166654d6174683a206469766973696f6e206279207a65726f000000000000604482015290519081900360640190fd5b81838161233357fe5b049392505050565b600082821115612392576040805162461bcd60e51b815260206004820152601e60248201527f536166654d6174683a207375627472616374696f6e206f766572666c6f770000604482015290519081900360640190fd5b50900390565b600354604080516370a0823160e01b815230600482015290516000926001600160a01b0316916370a08231916024808301926020929190829003018186803b1580156123e357600080fd5b505afa1580156123f7573d6000803e3d6000fd5b505050506040513d602081101561240d57600080fd5b505190506000818311156124a4576003546040805163a9059cbb60e01b81526001600160a01b038781166004830152602482018690529151919092169163a9059cbb9160448083019260209291908290030181600087803b15801561247157600080fd5b505af1158015612485573d6000803e3d6000fd5b505050506040513d602081101561249b57600080fd5b50519050612529565b6003546040805163a9059cbb60e01b81526001600160a01b038781166004830152602482018790529151919092169163a9059cbb9160448083019260209291908290030181600087803b1580156124fa57600080fd5b505af115801561250e573d6000803e3d6000fd5b505050506040513d602081101561252457600080fd5b505190505b806125655760405162461bcd60e51b81526004018080602001828103825260228152602001806129286022913960400191505060405180910390fd5b50505050565b604080516001600160a01b038416602482015260448082018490528251808303909101815260649091019091526020810180516001600160e01b031663a9059cbb60e01b1790526107f5908490612613565b604080516001600160a01b0380861660248301528416604482015260648082018490528251808303909101815260849091019091526020810180516001600160e01b03166323b872dd60e01b1790526125659085905b6060612668826040518060400160405280602081526020017f5361666545524332303a206c6f772d6c6576656c2063616c6c206661696c6564815250856001600160a01b03166126c49092919063ffffffff16565b8051909150156107f55780806020019051602081101561268757600080fd5b50516107f55760405162461bcd60e51b815260040180806020018281038252602a8152602001806129ae602a913960400191505060405180910390fd5b60606126d384846000856126db565b949350505050565b60608247101561271c5760405162461bcd60e51b81526004018080602001828103825260268152602001806129026026913960400191505060405180910390fd5b61272585612837565b612776576040805162461bcd60e51b815260206004820152601d60248201527f416464726573733a2063616c6c20746f206e6f6e2d636f6e7472616374000000604482015290519081900360640190fd5b60006060866001600160a01b031685876040518082805190602001908083835b602083106127b55780518252601f199092019160209182019101612796565b6001836020036101000a03801982511681845116808217855250505050505090500191505060006040518083038185875af1925050503d8060008114612817576040519150601f19603f3d011682016040523d82523d6000602084013e61281c565b606091505b509150915061282c82828661283d565b979650505050505050565b3b151590565b6060831561284c575081612274565b82511561285c5782518084602001fd5b8160405162461bcd60e51b81526004018080602001828103825283818151815260200191508051906020019080838360005b838110156128a657818101518382015260200161288e565b50505050905090810190601f1680156128d35780820380516001836020036101000a031916815260200191505b509250505060405180910390fdfe5265656e7472616e637947756172643a207265656e7472616e742063616c6c00416464726573733a20696e73756666696369656e742062616c616e636520666f722063616c6c73616665546f6b656e5472616e736665723a207472616e73666572206661696c656443616e27742061646420616e20616c7265616479206578697374696e67204661726d2e536166654d6174683a206d756c7469706c69636174696f6e206f766572666c6f774f776e61626c653a2063616c6c6572206973206e6f7420746865206f776e65725361666545524332303a204552433230206f7065726174696f6e20646964206e6f742073756363656564a26469706673582212203bc76099b273feb00031e186ce03d37a73c626d27fdd053eeb7ed417fcf3487564736f6c634300060c0033",
  "immutableReferences": {},
  "source": "// SPDX-License-Identifier: MIT\npragma solidity 0.6.12;\n\nimport \"@openzeppelin/contracts/token/ERC20/IERC20.sol\";\nimport \"@openzeppelin/contracts/token/ERC20/SafeERC20.sol\";\nimport \"@openzeppelin/contracts/utils/EnumerableSet.sol\";\nimport \"@openzeppelin/contracts/utils/ReentrancyGuard.sol\";\n\nimport \"@openzeppelin/contracts/math/SafeMath.sol\";\nimport \"./Ownable.sol\";\nimport \"./OxSwapToken.sol\";\n\n// MasterChef is the master of OXST. He can make OXST and he is a fair guy.\n//\n// Note that it's ownable and the owner wields tremendous power. The ownership\n// will be transferred to a governance smart contract once OxSwap is sufficiently\n// distributed and the community can show to govern itself.\n//\n// Have fun reading it. Hopefully it's bug-free. God bless.\ncontract MasterChef is Ownable, ReentrancyGuard {\n    using SafeMath for uint256;\n    using SafeERC20 for IERC20;\n    // Info of each user.\n    struct UserInfo {\n        uint256 amount; // How many LP tokens the user has provided.\n        uint256 rewardDebt; // Reward debt. See explanation below.\n        //\n        // We do some fancy math here. Basically, any point in time, the amount of OXSTs\n        // entitled to a user but is pending to be distributed is:\n        //\n        //   pending reward = (user.amount * pool.accOxSwapPerShare) - user.rewardDebt\n        //\n        // Whenever a user deposits or withdraws LP tokens to a pool. Here's what happens:\n        //   1. The pool's `accOxSwapPerShare` (and `lastRewardBlock`) gets updated.\n        //   2. User receives the pending reward sent to his/her address.\n        //   3. User's `amount` gets updated.\n        //   4. User's `rewardDebt` gets updated.\n    }\n    // Info of each pool.\n    struct PoolInfo {\n        IERC20 lpToken; // Address of LP token contract.\n        uint256 allocPoint; // How many allocation points assigned to this pool. OXSTs to distribute per block.\n        uint256 lastRewardBlock; // Last block number that OXSTs distribution occurs.\n        uint256 accOxSwapPerShare; // Accumulated OXSTs per share, times 1e12. See below.\n    }\n\n    // The OxSwap TOKEN!\n    OxSwapToken public OxSwap;\n    // Dev address.\n    address public devaddr;\n    //Dev mint devisor, can only be increased, reducing percentage.\n    uint8 public devDivisor = 8; // 8 == 12.5% // 9 == 11% // 10 == 10%  // 11 == 9%\n    // Reward collector address for blocktime change\n    address public rewardCollector;\n    // LP Depositor address for blocktime change\n    address public lpDepositor;\n    // Block number when bonus OxSwap period ends.\n    uint256 public bonusEndBlock;\n    // OxSwap tokens created per block.\n    uint256 public OxSwapPerBlock;\n    //Amount of OXSTs per Second\n    uint256 public OxSwapPerSecond;\n    // Bonus muliplier for early OxSwap makers.\n    uint256 public constant BONUS_MULTIPLIER = 1;\n    // Info of each pool.\n    PoolInfo[] public poolInfo;\n    // Info of each user that stakes LP tokens.\n    mapping(uint256 => mapping(address => UserInfo)) public userInfo;\n    // Mapping to know if the User has been added to the registry\n    mapping(address => bool) public isUserRegisty;\n    //Mapping to check if farm exists\n    mapping(IERC20 => bool) public poolExistence;\n    // Total allocation poitns. Must be the sum of all allocation points in all pools.\n    uint256 public totalAllocPoint = 0;\n    // The block number when OxSwap mining starts.\n    uint256 public startBlock;\n    // Last Blocktime in Milliseconds\n    uint256 public lastBlocktime;\n    // Current Blocktime in Milliseconds\n    uint256 public currentBlocktime;\n\n    event DevFundLowered(uint8 currentAmount);\n    event Deposit(address indexed user, uint256 indexed pid, uint256 amount);\n    event RewardChange(uint256 OxSwapPerBlock, uint256 Blocktime);\n    event Withdraw(address indexed user, uint256 indexed pid, uint256 amount);\n    event EmergencyWithdraw(\n        address indexed user,\n        uint256 indexed pid,\n        uint256 amount\n    );\n\n    modifier onlyCollector {\n      require(msg.sender == rewardCollector);\n      _;\n   }\n\n   modifier onlyDepositor {\n      require(msg.sender == lpDepositor);\n      _;\n   }\n\n   modifier validPID(uint256 _pid){\n    require(_pid < poolInfo.length, \"INVALID POOL ID\");\n    _;\n   }\n\n    modifier nonDuplicateAndValid(IERC20 _lpToken) {       \n        bool isToken = false; \n        try _lpToken.balanceOf(address(this)){\n            isToken = true;\n        } catch {\n            isToken = false;\n        }\n        require(poolExistence[_lpToken] == false, \"Can't add an already existing Farm.\");\n        require(isToken == true, \"Can't call balanceOf. Revert.\");\n        _;\n    }\n\n    constructor(\n        OxSwapToken _oxst,\n        address _devaddr,\n        uint256 _oxstPerBlock,\n        uint256 _oxstPerSecond,\n        uint256 _startBlock,\n        uint256 _bonusEndBlock,\n        uint256 _currentBlocktime,\n        uint256 _lastBlocktime\n    ) public {\n        OxSwap = _oxst;\n        devaddr = _devaddr;\n        rewardCollector = _devaddr;\n        OxSwapPerBlock = _oxstPerBlock;\n        OxSwapPerSecond = _oxstPerSecond;\n        bonusEndBlock = _bonusEndBlock;\n        startBlock = _startBlock;\n        currentBlocktime = _currentBlocktime;\n        lastBlocktime = _lastBlocktime;\n    }\n\n    function poolLength() external view returns (uint256) {\n        return poolInfo.length;\n    }\n    //Changes rewards per block in Case an eventual Change in Harmony BlockTime\n    function updateBlockIssuanceWithBlocktime()\n        public onlyOwner {\n        require(lastBlocktime != currentBlocktime , \"OxSwap: Blocktime hasn't changed\");\n        OxSwapPerBlock = currentBlocktime.mul(OxSwapPerSecond).div(1000);\n        lastBlocktime = currentBlocktime;\n        emit RewardChange(OxSwapPerBlock, currentBlocktime);\n    }\n\n    //Changes the Blocktime Parameter and updates the Rewards per Block\n    function changeBlocktime(uint _currentBlocktime)\n        public onlyOwner {\n        require(lastBlocktime != _currentBlocktime , \"OxSwap: Blocktime hasn't changed\");\n        require(_currentBlocktime <= 4000, \"Can't set blockime over 4s.\");\n        \n        massUpdatePools();\n\n        currentBlocktime = _currentBlocktime;\n        updateBlockIssuanceWithBlocktime();\n        \n    }\n\n    // Add a new lp to the pool. Can only be called by the owner.\n    function add(\n        uint256 _allocPoint,\n        IERC20 _lpToken,\n        bool _withUpdate\n    ) public onlyOwner nonDuplicateAndValid(_lpToken) {\n        if (_withUpdate) {\n            massUpdatePools();\n        }\n        uint256 lastRewardBlock =\n            block.number > startBlock ? block.number : startBlock;\n        totalAllocPoint = totalAllocPoint.add(_allocPoint);\n        poolExistence[_lpToken] = true;\n        poolInfo.push(\n            PoolInfo({\n                lpToken: _lpToken,\n                allocPoint: _allocPoint,\n                lastRewardBlock: lastRewardBlock,\n                accOxSwapPerShare: 1\n            })\n        );\n    }\n\n    // Update the given pool's OxSwap allocation point. Can only be called by the owner.\n    function set(\n        uint256 _pid,\n        uint256 _allocPoint,\n        bool _withUpdate\n    ) public onlyOwner validPID(_pid){\n        if (_withUpdate) {\n            massUpdatePools();\n        }\n        totalAllocPoint = totalAllocPoint.sub(poolInfo[_pid].allocPoint).add(\n            _allocPoint\n        );\n        poolInfo[_pid].allocPoint = _allocPoint;\n    }\n\n\n    // Return reward multiplier over the given _from to _to block.\n    function getMultiplier(uint256 _from, uint256 _to)\n        public\n        view\n        returns (uint256)\n    {\n        if (_to <= bonusEndBlock) {\n            return _to.sub(_from).mul(BONUS_MULTIPLIER);\n        } else if (_from >= bonusEndBlock) {\n            return _to.sub(_from);\n        } else {\n            return\n                bonusEndBlock.sub(_from).mul(BONUS_MULTIPLIER).add(\n                    _to.sub(bonusEndBlock)\n                );\n        }\n    }\n\n    // View function to see pending OXSTs on frontend.\n    function pendingOxSwap(uint256 _pid, address _user)\n        external\n        view\n        validPID(_pid)\n        returns (uint256)\n        {\n        PoolInfo storage pool = poolInfo[_pid];\n        UserInfo storage user = userInfo[_pid][_user];\n        uint256 accOxSwapPerShare = pool.accOxSwapPerShare;\n        uint256 lpSupply = pool.lpToken.balanceOf(address(this));\n        if (block.number > pool.lastRewardBlock && lpSupply != 0) {\n            uint256 multiplier =\n                getMultiplier(pool.lastRewardBlock, block.number);\n            uint256 OxSwapReward =\n                multiplier.mul(OxSwapPerBlock).mul(pool.allocPoint).div(\n                    totalAllocPoint\n                );\n            accOxSwapPerShare = accOxSwapPerShare.add(\n                OxSwapReward.mul(1e12).div(lpSupply)\n            );\n        }\n        return user.amount.mul(accOxSwapPerShare).div(1e12).sub(user.rewardDebt);\n    }\n    function amountStaked(uint256 _pid, address _user)\n        external\n        view\n        validPID(_pid)\n        returns (uint256)\n    {\n        UserInfo storage user = userInfo[_pid][_user];\n        return user.amount;\n\n    }\n\n    // Update reward vairables for all pools. Be careful of gas spending!\n    function massUpdatePools() public {\n        uint256 length = poolInfo.length;\n        for (uint256 pid = 0; pid < length; ++pid) {\n            updatePool(pid);\n        }\n    }\n\n    // Update reward variables of the given pool to be up-to-date.\n    function updatePool(uint256 _pid) public validPID(_pid) {\n        PoolInfo storage pool = poolInfo[_pid];\n        if (block.number <= pool.lastRewardBlock) {\n            return;\n        }\n        uint256 lpSupply = pool.lpToken.balanceOf(address(this));\n        if (lpSupply == 0) {\n            pool.lastRewardBlock = block.number;\n            return;\n        }\n        uint256 multiplier = getMultiplier(pool.lastRewardBlock, block.number);\n        uint256 OxSwapReward =\n            multiplier.mul(OxSwapPerBlock).mul(pool.allocPoint).div(\n                totalAllocPoint\n            );\n        OxSwap.mint(devaddr, OxSwapReward.div(devDivisor));\n        OxSwap.mint(address(this), OxSwapReward);\n        pool.accOxSwapPerShare = pool.accOxSwapPerShare.add(\n            OxSwapReward.mul(1e12).div(lpSupply)\n        );\n        pool.lastRewardBlock = block.number;\n    }\n\n    // Deposit LP tokens to MasterChef for OxSwap allocation.\n    function deposit(uint256 _pid, uint256 _amount) public validPID(_pid) nonReentrant {\n        PoolInfo storage pool = poolInfo[_pid];\n        UserInfo storage user = userInfo[_pid][msg.sender];\n        updatePool(_pid);\n\n        if (user.amount > 0) {\n            uint256 pending = user.amount.mul(pool.accOxSwapPerShare).div(1e12).sub(user.rewardDebt);\n            if (pending > 0) {\n                safeTokenTransfer(msg.sender, pending);\n            }\n        }\n\n        if (_amount > 0) {\n            uint256 balanceBefore = pool.lpToken.balanceOf(address(this));\n            pool.lpToken.safeTransferFrom(address(msg.sender), address(this), _amount);\n            uint256 finalAmount = pool.lpToken.balanceOf(address(this)).sub(balanceBefore);\n            user.amount = user.amount.add(finalAmount);\n        }\n        \n        user.rewardDebt = user.amount.mul(pool.accOxSwapPerShare).div(1e12);\n        emit Deposit(msg.sender, _pid, _amount);\n    }\n\n    // ext deposit is to be called by a contract that must have the lp tokens. it will credit the account passed in as _user\n    // allows 1 click deposit and stake of LP.\n    // it also collects and send the user's farm rewards to his wallet.\n    // does NOT transfer _user LP tokens.\n    function extDeposit(uint256 _pid, uint256 _amount, address _user) public onlyDepositor validPID(_pid) nonReentrant {\n        PoolInfo storage pool = poolInfo[_pid];\n        UserInfo storage user = userInfo[_pid][_user];//gets the user info passed in as parameter\n        updatePool(_pid);\n\n        if (user.amount > 0) {\n            uint256 pending = user.amount.mul(pool.accOxSwapPerShare).div(1e12).sub(user.rewardDebt);\n            if (pending > 0) {\n                safeTokenTransfer(_user, pending); //Send rewards to _user not msg.sender\n            }\n        }\n\n        if (_amount > 0) {\n            uint256 balanceBefore = pool.lpToken.balanceOf(address(this));\n\n            //does not take _user but msg.sender to take the LP tokens\n            pool.lpToken.safeTransferFrom(address(msg.sender), address(this), _amount);\n            uint256 finalAmount = pool.lpToken.balanceOf(address(this)).sub(balanceBefore);\n            user.amount = user.amount.add(finalAmount);\n        }\n        \n        user.rewardDebt = user.amount.mul(pool.accOxSwapPerShare).div(1e12);\n        emit Deposit(msg.sender, _pid, _amount);\n    }\n\n    // Withdraw LP tokens from MasterChef.\n    function withdraw(uint256 _pid, uint256 _amount) public validPID(_pid) nonReentrant{\n        PoolInfo storage pool = poolInfo[_pid];\n        UserInfo storage user = userInfo[_pid][msg.sender];\n        require(user.amount >= _amount, \"withdraw: not good\");\n        updatePool(_pid);\n        uint256 pending =\n            user.amount.mul(pool.accOxSwapPerShare).div(1e12).sub(\n                user.rewardDebt\n            );\n        safeTokenTransfer(msg.sender, pending);\n        user.amount = user.amount.sub(_amount);\n        user.rewardDebt = user.amount.mul(pool.accOxSwapPerShare).div(1e12);\n        pool.lpToken.safeTransfer(address(msg.sender), _amount);\n        emit Withdraw(msg.sender, _pid, _amount);\n    }\n\n    //Withdraw users OxSwap token by Collector address. Allows some flexibility to the dev.\n    //Does not withdraw LPs\n    function extWithdraw(uint256 _pid, address _user)\n    public onlyCollector validPID(_pid) nonReentrant{\n        uint256 _amount = 0; //HardCoded 0 Amount: Withdraw only OxSwap tokens and not LP tokens\n        PoolInfo storage pool = poolInfo[_pid];\n        UserInfo storage user = userInfo[_pid][_user];\n        require(user.amount >= _amount, \"withdraw: not good\");\n        updatePool(_pid);\n        uint256 pending =\n            user.amount.mul(pool.accOxSwapPerShare).div(1e12).sub(\n                user.rewardDebt\n            );\n\n        if (pending > 0) {\n            safeTokenTransfer(_user, pending);\n        }\n\n        user.rewardDebt = user.amount.mul(pool.accOxSwapPerShare).div(1e12);\n        emit Withdraw(_user, _pid, _amount);\n    }\n\n    function collectAll() public {\n        for (uint256 i = 0; i < poolInfo.length-1 ; i++) {\n          withdraw(i, 0);\n        }\n    }\n\n    // Withdraw without caring about rewards. EMERGENCY ONLY.\n    function emergencyWithdraw(uint256 _pid) public validPID(_pid) nonReentrant {\n        PoolInfo storage pool = poolInfo[_pid];\n        UserInfo storage user = userInfo[_pid][msg.sender];\n        pool.lpToken.safeTransfer(address(msg.sender), user.amount);\n        emit EmergencyWithdraw(msg.sender, _pid, user.amount);\n        user.amount = 0;\n        user.rewardDebt = 0;\n    }\n\n    // Safe OxSwap transfer function, just in case if rounding error causes pool to not have enough OXSTs.\n    function safeTokenTransfer(address _to, uint256 _amount) internal {\n        uint256 tokenBal = OxSwap.balanceOf(address(this));\n        bool transferSuccess = false;\n        if (_amount > tokenBal) {\n            transferSuccess = OxSwap.transfer(_to, tokenBal);\n        } else {\n            transferSuccess = OxSwap.transfer(_to, _amount);\n        }\n        require(transferSuccess, \"safeTokenTransfer: transfer failed\");\n    }\n    //allows dev to lower his reward mint percentage by increasing divisor.\n    function lowerDevFund() public onlyOwner{\n        require(devDivisor < 255, 'Thats it Folks !'); // prevents overflow\n        devDivisor += 1;\n        emit DevFundLowered(devDivisor);\n    }\n\n    // Update dev address by the previous dev.\n    function dev(address _devaddr) public {\n        require(msg.sender == devaddr, \"The Dev says: Non.\");\n        devaddr = _devaddr;\n    }\n\n    function collector(address _collectoraddr) public {\n        require(msg.sender == rewardCollector || msg.sender == devaddr, \"The Dev says: Non. \");\n        rewardCollector = _collectoraddr;\n    }\n\n\n    function depositor(address _depositoraddr) public {\n        require(msg.sender == lpDepositor || msg.sender == devaddr, \"The dev says: Non. \");\n        lpDepositor = _depositoraddr;\n    }\n}",
  "sourcePath": "/opt/oxswap/latest/oxswap-core/contracts/MasterChef.sol",
  "compiler": {
    "name": "solc",
    "version": "0.6.12+commit.27d51765.Emscripten.clang"
  },
  "schemaVersion": "3.4.4",
  "updatedAt": "2022-02-05T16:32:29.539Z",
  "networkType": "ethereum",
  "devdoc": {
    "kind": "dev",
    "methods": {},
    "version": 1
  },
  "userdoc": {
    "kind": "user",
    "methods": {},
    "version": 1
  }
}