{
  "contractName": "Multicall",
  "abi": [
    {
      "inputs": [
        {
          "components": [
            {
              "internalType": "address",
              "name": "target",
              "type": "address"
            },
            {
              "internalType": "bytes",
              "name": "callData",
              "type": "bytes"
            }
          ],
          "internalType": "struct Multicall.Call[]",
          "name": "calls",
          "type": "tuple[]"
        }
      ],
      "name": "aggregate",
      "outputs": [
        {
          "internalType": "uint256",
          "name": "blockNumber",
          "type": "uint256"
        },
        {
          "internalType": "bytes[]",
          "name": "returnData",
          "type": "bytes[]"
        }
      ],
      "stateMutability": "nonpayable",
      "type": "function"
    },
    {
      "inputs": [
        {
          "internalType": "address",
          "name": "addr",
          "type": "address"
        }
      ],
      "name": "getEthBalance",
      "outputs": [
        {
          "internalType": "uint256",
          "name": "balance",
          "type": "uint256"
        }
      ],
      "stateMutability": "view",
      "type": "function"
    },
    {
      "inputs": [
        {
          "internalType": "uint256",
          "name": "blockNumber",
          "type": "uint256"
        }
      ],
      "name": "getBlockHash",
      "outputs": [
        {
          "internalType": "bytes32",
          "name": "blockHash",
          "type": "bytes32"
        }
      ],
      "stateMutability": "view",
      "type": "function"
    },
    {
      "inputs": [],
      "name": "getLastBlockHash",
      "outputs": [
        {
          "internalType": "bytes32",
          "name": "blockHash",
          "type": "bytes32"
        }
      ],
      "stateMutability": "view",
      "type": "function"
    },
    {
      "inputs": [],
      "name": "getCurrentBlockTimestamp",
      "outputs": [
        {
          "internalType": "uint256",
          "name": "timestamp",
          "type": "uint256"
        }
      ],
      "stateMutability": "view",
      "type": "function"
    },
    {
      "inputs": [],
      "name": "getCurrentBlockDifficulty",
      "outputs": [
        {
          "internalType": "uint256",
          "name": "difficulty",
          "type": "uint256"
        }
      ],
      "stateMutability": "view",
      "type": "function"
    },
    {
      "inputs": [],
      "name": "getCurrentBlockGasLimit",
      "outputs": [
        {
          "internalType": "uint256",
          "name": "gaslimit",
          "type": "uint256"
        }
      ],
      "stateMutability": "view",
      "type": "function"
    },
    {
      "inputs": [],
      "name": "getCurrentBlockCoinbase",
      "outputs": [
        {
          "internalType": "address",
          "name": "coinbase",
          "type": "address"
        }
      ],
      "stateMutability": "view",
      "type": "function"
    }
  ],
  "bytecode": "0x608060405234801561001057600080fd5b5061056b806100206000396000f3fe608060405234801561001057600080fd5b50600436106100885760003560e01c806372425d9d1161005b57806372425d9d146100e757806386d516e8146100ef578063a8b0574e146100f7578063ee82ac5e1461010c57610088565b80630f28c97d1461008d578063252dba42146100ab57806327e86d6e146100cc5780634d2301cc146100d4575b600080fd5b61009561011f565b6040516100a29190610425565b60405180910390f35b6100be6100b9366004610342565b610123565b6040516100a292919061042e565b610095610246565b6100956100e2366004610314565b61024f565b61009561025c565b610095610260565b6100ff610264565b6040516100a29190610411565b61009561011a3660046103dd565b610268565b4290565b8051439060609067ffffffffffffffff8111801561014057600080fd5b5060405190808252806020026020018201604052801561017457816020015b606081526020019060019003908161015f5790505b50905060005b8351811015610240576000606085838151811061019357fe5b6020026020010151600001516001600160a01b03168684815181106101b457fe5b6020026020010151602001516040516101cd91906103f5565b6000604051808303816000865af19150503d806000811461020a576040519150601f19603f3d011682016040523d82523d6000602084013e61020f565b606091505b50915091508161021e57600080fd5b8084848151811061022b57fe5b6020908102919091010152505060010161017a565b50915091565b60001943014090565b6001600160a01b03163190565b4490565b4590565b4190565b4090565b60006040828403121561027d578081fd5b61028760406104ae565b905081356001600160a01b03811681146102a057600080fd5b8152602082013567ffffffffffffffff8111156102bc57600080fd5b8201601f810184136102cd57600080fd5b80356102e06102db826104d5565b6104ae565b8181528560208385010111156102f557600080fd5b6103068260208301602086016104f9565b602084015250909392505050565b600060208284031215610325578081fd5b81356001600160a01b038116811461033b578182fd5b9392505050565b60006020808385031215610354578182fd5b823567ffffffffffffffff8082111561036b578384fd5b818501915085601f83011261037e578384fd5b81358181111561038c578485fd5b61039984858302016104ae565b8181528481019250838501865b838110156103cf576103bd8a88843589010161026c565b855293860193908601906001016103a6565b509098975050505050505050565b6000602082840312156103ee578081fd5b5035919050565b60008251610407818460208701610505565b9190910192915050565b6001600160a01b0391909116815260200190565b90815260200190565b600060408201848352602060408185015281855180845260608601915060608382028701019350828701855b828110156104a057878603605f190184528151805180885261048181888a01898501610505565b601f01601f19169690960185019550928401929084019060010161045a565b509398975050505050505050565b60405181810167ffffffffffffffff811182821017156104cd57600080fd5b604052919050565b600067ffffffffffffffff8211156104eb578081fd5b50601f01601f191660200190565b82818337506000910152565b60005b83811015610520578181015183820152602001610508565b8381111561052f576000848401525b5050505056fea26469706673582212204556567c3f0e8cd3e89876227beecb0231473fc10ff958356ecb43c7291e473d64736f6c634300060c0033",
  "immutableReferences": {},
  "source": "// SPDX-License-Identifier: MIT\npragma solidity >=0.5.0;\npragma experimental ABIEncoderV2;\n\n/// @title Multicall - Aggregate results from multiple read-only function calls\n/// @author Michael Elliot <mike@makerdao.com>\n/// @author Joshua Levine <joshua@makerdao.com>\n/// @author Nick Johnson <arachnid@notdot.net>\n\ncontract Multicall {\n    struct Call {\n        address target;\n        bytes callData;\n    }\n    function aggregate(Call[] memory calls) public returns (uint256 blockNumber, bytes[] memory returnData) {\n        blockNumber = block.number;\n        returnData = new bytes[](calls.length);\n        for(uint256 i = 0; i < calls.length; i++) {\n            (bool success, bytes memory ret) = calls[i].target.call(calls[i].callData);\n            require(success);\n            returnData[i] = ret;\n        }\n    }\n    function getEthBalance(address addr) public view returns (uint256 balance) {\n        balance = addr.balance;\n    }\n    function getBlockHash(uint256 blockNumber) public view returns (bytes32 blockHash) {\n        blockHash = blockhash(blockNumber);\n    }\n    function getLastBlockHash() public view returns (bytes32 blockHash) {\n        blockHash = blockhash(block.number - 1);\n    }\n    function getCurrentBlockTimestamp() public view returns (uint256 timestamp) {\n        timestamp = block.timestamp;\n    }\n    function getCurrentBlockDifficulty() public view returns (uint256 difficulty) {\n        difficulty = block.difficulty;\n    }\n    function getCurrentBlockGasLimit() public view returns (uint256 gaslimit) {\n        gaslimit = block.gaslimit;\n    }\n    function getCurrentBlockCoinbase() public view returns (address coinbase) {\n        coinbase = block.coinbase;\n    }\n}\n",
  "sourcePath": "/opt/oxswap/latest/oxswap-core/contracts/Multicall.sol",
  "compiler": {
    "name": "solc",
    "version": "0.6.12+commit.27d51765.Emscripten.clang"
  },
  "schemaVersion": "3.4.4",
  "updatedAt": "2022-02-05T16:32:29.504Z",
  "networkType": "ethereum",
  "devdoc": {
    "author": "Michael Elliot <mike@makerdao.com>Joshua Levine <joshua@makerdao.com>Nick Johnson <arachnid@notdot.net>",
    "kind": "dev",
    "methods": {},
    "title": "Multicall - Aggregate results from multiple read-only function calls",
    "version": 1
  },
  "userdoc": {
    "kind": "user",
    "methods": {},
    "version": 1
  }
}