{
  "contractName": "OxSwapMaker",
  "abi": [
    {
      "inputs": [
        {
          "internalType": "address",
          "name": "_factory",
          "type": "address"
        },
        {
          "internalType": "address",
          "name": "_oxst",
          "type": "address"
        },
        {
          "internalType": "address",
          "name": "_weth",
          "type": "address"
        }
      ],
      "stateMutability": "nonpayable",
      "type": "constructor"
    },
    {
      "anonymous": false,
      "inputs": [
        {
          "indexed": true,
          "internalType": "address",
          "name": "token",
          "type": "address"
        },
        {
          "indexed": true,
          "internalType": "address",
          "name": "bridge",
          "type": "address"
        }
      ],
      "name": "LogBridgeSet",
      "type": "event"
    },
    {
      "anonymous": false,
      "inputs": [
        {
          "indexed": true,
          "internalType": "address",
          "name": "server",
          "type": "address"
        },
        {
          "indexed": true,
          "internalType": "address",
          "name": "token0",
          "type": "address"
        },
        {
          "indexed": true,
          "internalType": "address",
          "name": "token1",
          "type": "address"
        },
        {
          "indexed": false,
          "internalType": "uint256",
          "name": "amount0",
          "type": "uint256"
        },
        {
          "indexed": false,
          "internalType": "uint256",
          "name": "amount1",
          "type": "uint256"
        },
        {
          "indexed": false,
          "internalType": "uint256",
          "name": "amountOXST",
          "type": "uint256"
        }
      ],
      "name": "LogConvert",
      "type": "event"
    },
    {
      "anonymous": false,
      "inputs": [
        {
          "indexed": true,
          "internalType": "address",
          "name": "previousOwner",
          "type": "address"
        },
        {
          "indexed": true,
          "internalType": "address",
          "name": "newOwner",
          "type": "address"
        }
      ],
      "name": "OwnershipTransferred",
      "type": "event"
    },
    {
      "inputs": [],
      "name": "claimOwnership",
      "outputs": [],
      "stateMutability": "nonpayable",
      "type": "function"
    },
    {
      "inputs": [],
      "name": "factory",
      "outputs": [
        {
          "internalType": "contract IUniswapV2Factory",
          "name": "",
          "type": "address"
        }
      ],
      "stateMutability": "view",
      "type": "function",
      "constant": true
    },
    {
      "inputs": [],
      "name": "owner",
      "outputs": [
        {
          "internalType": "address",
          "name": "",
          "type": "address"
        }
      ],
      "stateMutability": "view",
      "type": "function",
      "constant": true
    },
    {
      "inputs": [],
      "name": "pendingOwner",
      "outputs": [
        {
          "internalType": "address",
          "name": "",
          "type": "address"
        }
      ],
      "stateMutability": "view",
      "type": "function",
      "constant": true
    },
    {
      "inputs": [
        {
          "internalType": "address",
          "name": "newOwner",
          "type": "address"
        },
        {
          "internalType": "bool",
          "name": "direct",
          "type": "bool"
        },
        {
          "internalType": "bool",
          "name": "renounce",
          "type": "bool"
        }
      ],
      "name": "transferOwnership",
      "outputs": [],
      "stateMutability": "nonpayable",
      "type": "function"
    },
    {
      "inputs": [
        {
          "internalType": "address",
          "name": "token",
          "type": "address"
        }
      ],
      "name": "bridgeFor",
      "outputs": [
        {
          "internalType": "address",
          "name": "bridge",
          "type": "address"
        }
      ],
      "stateMutability": "view",
      "type": "function",
      "constant": true
    },
    {
      "inputs": [
        {
          "internalType": "address",
          "name": "token",
          "type": "address"
        },
        {
          "internalType": "address",
          "name": "bridge",
          "type": "address"
        }
      ],
      "name": "setBridge",
      "outputs": [],
      "stateMutability": "nonpayable",
      "type": "function"
    },
    {
      "inputs": [
        {
          "internalType": "address",
          "name": "token0",
          "type": "address"
        },
        {
          "internalType": "address",
          "name": "token1",
          "type": "address"
        }
      ],
      "name": "convert",
      "outputs": [],
      "stateMutability": "nonpayable",
      "type": "function"
    },
    {
      "inputs": [
        {
          "internalType": "address[]",
          "name": "token0",
          "type": "address[]"
        },
        {
          "internalType": "address[]",
          "name": "token1",
          "type": "address[]"
        }
      ],
      "name": "convertMultiple",
      "outputs": [],
      "stateMutability": "nonpayable",
      "type": "function"
    }
  ],
  "bytecode": "0x60e060405234801561001057600080fd5b5060405161186d38038061186d8339818101604052606081101561003357600080fd5b5080516020820151604092830151600080546001600160a01b0319163390811782559451939492939192917f8be0079c531659141344cd1fd0a4f28419497f9722a3daafe3b4186f6b6457e0908290a36001600160601b0319606093841b811660805291831b821660a05290911b1660c05260805160601c60a05160601c60c05160601c611734610139600039806105b752806106d55280610ceb5280610d285280610f315280610f6e5280610f975280610fc45280611001528061102a52508061057a5280610c235280610c825280610d885280610de75280610e635280610ec2528061115d528061118752508061075e5280610793528061121f52506117346000f3fe608060405234801561001057600080fd5b50600436106100935760003560e01c80639d22ae8c116100665780639d22ae8c146101be578063a761a939146101ec578063bd1b820c14610212578063c45a015514610240578063e30c39781461024857610093565b8063078dfbe714610098578063303e6aa4146100d05780634e71e0c8146101925780638da5cb5b1461019a575b600080fd5b6100ce600480360360608110156100ae57600080fd5b506001600160a01b03813516906020810135151590604001351515610250565b005b6100ce600480360360408110156100e657600080fd5b81019060208101813564010000000081111561010157600080fd5b82018360208201111561011357600080fd5b8035906020019184602083028401116401000000008311171561013557600080fd5b91939092909160208101903564010000000081111561015357600080fd5b82018360208201111561016557600080fd5b8035906020019184602083028401116401000000008311171561018757600080fd5b509092509050610398565b6100ce610448565b6101a261050a565b604080516001600160a01b039092168252519081900360200190f35b6100ce600480360360408110156101d457600080fd5b506001600160a01b0381358116916020013516610519565b6101a26004803603602081101561020257600080fd5b50356001600160a01b03166106b2565b6100ce6004803603604081101561022857600080fd5b506001600160a01b03813581169160200135166106fa565b6101a261075c565b6101a2610780565b6000546001600160a01b031633146102af576040805162461bcd60e51b815260206004820181905260248201527f4f776e61626c653a2063616c6c6572206973206e6f7420746865206f776e6572604482015290519081900360640190fd5b8115610377576001600160a01b0383161515806102c95750805b610312576040805162461bcd60e51b81526020600482015260156024820152744f776e61626c653a207a65726f206164647265737360581b604482015290519081900360640190fd5b600080546040516001600160a01b03808716939216917f8be0079c531659141344cd1fd0a4f28419497f9722a3daafe3b4186f6b6457e091a3600080546001600160a01b0385166001600160a01b031991821617909155600180549091169055610393565b600180546001600160a01b0319166001600160a01b0385161790555b505050565b3332146103ec576040805162461bcd60e51b815260206004820152601a60248201527f4f7853776170204d616b65723a206d7573742075736520454f41000000000000604482015290519081900360640190fd5b8260005b818110156104405761043886868381811061040757fe5b905060200201356001600160a01b031685858481811061042357fe5b905060200201356001600160a01b031661078f565b6001016103f0565b505050505050565b6001546001600160a01b03163381146104a8576040805162461bcd60e51b815260206004820181905260248201527f4f776e61626c653a2063616c6c657220213d2070656e64696e67206f776e6572604482015290519081900360640190fd5b600080546040516001600160a01b03808516939216917f8be0079c531659141344cd1fd0a4f28419497f9722a3daafe3b4186f6b6457e091a3600080546001600160a01b039092166001600160a01b0319928316179055600180549091169055565b6000546001600160a01b031681565b6000546001600160a01b03163314610578576040805162461bcd60e51b815260206004820181905260248201527f4f776e61626c653a2063616c6c6572206973206e6f7420746865206f776e6572604482015290519081900360640190fd5b7f00000000000000000000000000000000000000000000000000000000000000006001600160a01b0316826001600160a01b0316141580156105ec57507f00000000000000000000000000000000000000000000000000000000000000006001600160a01b0316826001600160a01b031614155b801561060a5750806001600160a01b0316826001600160a01b031614155b61065b576040805162461bcd60e51b815260206004820152601c60248201527f4f7853776170204d616b65723a20496e76616c69642062726964676500000000604482015290519081900360640190fd5b6001600160a01b0382811660008181526002602052604080822080546001600160a01b0319169486169485179055517f2e103aa707acc565f9a1547341914802b2bfe977fd79c595209f248ae4b006139190a35050565b6001600160a01b0380821660009081526002602052604090205416806106f557507f00000000000000000000000000000000000000000000000000000000000000005b919050565b33321461074e576040805162461bcd60e51b815260206004820152601a60248201527f4f7853776170204d616b65723a206d7573742075736520454f41000000000000604482015290519081900360640190fd5b610758828261078f565b5050565b7f000000000000000000000000000000000000000000000000000000000000000081565b6001546001600160a01b031681565b60007f00000000000000000000000000000000000000000000000000000000000000006001600160a01b031663e6a4390584846040518363ffffffff1660e01b815260040180836001600160a01b03168152602001826001600160a01b031681526020019250505060206040518083038186803b15801561080f57600080fd5b505afa158015610823573d6000803e3d6000fd5b505050506040513d602081101561083957600080fd5b505190506001600160a01b038116610898576040805162461bcd60e51b815260206004820152601a60248201527f4f7853776170204d616b65723a20496e76616c69642070616972000000000000604482015290519081900360640190fd5b61092681826001600160a01b03166370a08231306040518263ffffffff1660e01b815260040180826001600160a01b0316815260200191505060206040518083038186803b1580156108e957600080fd5b505afa1580156108fd573d6000803e3d6000fd5b505050506040513d602081101561091357600080fd5b50516001600160a01b0384169190610a8d565b600080826001600160a01b03166389afcb44306040518263ffffffff1660e01b815260040180826001600160a01b031681526020019150506040805180830381600087803b15801561097757600080fd5b505af115801561098b573d6000803e3d6000fd5b505050506040513d60408110156109a157600080fd5b50805160209182015160408051630dfe168160e01b815290519295509093506001600160a01b03861692630dfe168192600480840193829003018186803b1580156109eb57600080fd5b505afa1580156109ff573d6000803e3d6000fd5b505050506040513d6020811015610a1557600080fd5b50516001600160a01b03868116911614610a2b57905b6001600160a01b03808516908616337fd06b1d7ed79b664d17472c6f6997b929f1abe463ccccb4e5b6a0038f2f730c158585610a698b8b8484610bf7565b60408051938452602084019290925282820152519081900360600190a45050505050565b604080516001600160a01b038481166024830152604480830185905283518084039091018152606490920183526020820180516001600160e01b031663a9059cbb60e01b178152925182516000946060949389169392918291908083835b60208310610b0a5780518252601f199092019160209182019101610aeb565b6001836020036101000a0380198251168184511680821785525050505050509050019150506000604051808303816000865af19150503d8060008114610b6c576040519150601f19603f3d011682016040523d82523d6000602084013e610b71565b606091505b5091509150818015610b9f575080511580610b9f5750808060200190516020811015610b9c57600080fd5b50515b610bf0576040805162461bcd60e51b815260206004820152601a60248201527f5361666545524332303a205472616e73666572206661696c6564000000000000604482015290519081900360640190fd5b5050505050565b6000836001600160a01b0316856001600160a01b03161415610d86576000610c1f84846110fe565b90507f00000000000000000000000000000000000000000000000000000000000000006001600160a01b0316866001600160a01b03161415610ce95760408051632770a7eb60e21b81523060048201526024810183905290516001600160a01b037f00000000000000000000000000000000000000000000000000000000000000001691639dc29fac91604480830192600092919082900301818387803b158015610cc957600080fd5b505af1158015610cdd573d6000803e3d6000fd5b50505050809150610d80565b7f00000000000000000000000000000000000000000000000000000000000000006001600160a01b0316866001600160a01b03161415610d5457610d4d7f000000000000000000000000000000000000000000000000000000000000000082611155565b9150610d80565b6000610d5f876106b2565b9050610d6d8782843061121a565b9150610d7c8182846000610bf7565b9250505b506110f6565b7f00000000000000000000000000000000000000000000000000000000000000006001600160a01b0316856001600160a01b03161415610e615760408051632770a7eb60e21b81523060048201526024810185905290516001600160a01b037f00000000000000000000000000000000000000000000000000000000000000001691639dc29fac91604480830192600092919082900301818387803b158015610e2e57600080fd5b505af1158015610e42573d6000803e3d6000fd5b50505050610e5a83610e548685611155565b906110fe565b90506110f6565b7f00000000000000000000000000000000000000000000000000000000000000006001600160a01b0316846001600160a01b03161415610f2f5760408051632770a7eb60e21b81523060048201526024810184905290516001600160a01b037f00000000000000000000000000000000000000000000000000000000000000001691639dc29fac91604480830192600092919082900301818387803b158015610f0957600080fd5b505af1158015610f1d573d6000803e3d6000fd5b50505050610e5a82610e548786611155565b7f00000000000000000000000000000000000000000000000000000000000000006001600160a01b0316856001600160a01b03161415610fc257610e5a7f0000000000000000000000000000000000000000000000000000000000000000610fbd85610e54887f0000000000000000000000000000000000000000000000000000000000000000883061121a565b611155565b7f00000000000000000000000000000000000000000000000000000000000000006001600160a01b0316846001600160a01b0316141561105057610e5a7f0000000000000000000000000000000000000000000000000000000000000000610fbd84610e54897f0000000000000000000000000000000000000000000000000000000000000000893061121a565b600061105b866106b2565b90506000611068866106b2565b9050856001600160a01b0316826001600160a01b031614156110a25761109b82876110958a868a3061121a565b87610bf7565b92506110f3565b866001600160a01b0316816001600160a01b031614156110d35761109b8782876110ce8a868a3061121a565b610bf7565b6110f082826110e48a868a3061121a565b6110ce8a868a3061121a565b92505b50505b949350505050565b8181018181101561114f576040805162461bcd60e51b8152602060048201526016602482015275536166654d6174683a20416464204f766572666c6f7760501b604482015290519081900360640190fd5b92915050565b6000611183837f0000000000000000000000000000000000000000000000000000000000000000843061121a565b90507f00000000000000000000000000000000000000000000000000000000000000006001600160a01b0316639dc29fac30836040518363ffffffff1660e01b815260040180836001600160a01b0316815260200182815260200192505050600060405180830381600087803b1580156111fc57600080fd5b505af1158015611210573d6000803e3d6000fd5b5050505092915050565b6000807f00000000000000000000000000000000000000000000000000000000000000006001600160a01b031663e6a4390587876040518363ffffffff1660e01b815260040180836001600160a01b03168152602001826001600160a01b031681526020019250505060206040518083038186803b15801561129b57600080fd5b505afa1580156112af573d6000803e3d6000fd5b505050506040513d60208110156112c557600080fd5b505190506001600160a01b038116611324576040805162461bcd60e51b815260206004820152601c60248201527f4f7853776170204d616b65723a2043616e6e6f7420636f6e7665727400000000604482015290519081900360640190fd5b600080826001600160a01b0316630902f1ac6040518163ffffffff1660e01b815260040160606040518083038186803b15801561136057600080fd5b505afa158015611374573d6000803e3d6000fd5b505050506040513d606081101561138a57600080fd5b5080516020909101516dffffffffffffffffffffffffffff918216935016905060006113b8876103e5611699565b9050836001600160a01b0316630dfe16816040518163ffffffff1660e01b815260040160206040518083038186803b1580156113f357600080fd5b505afa158015611407573d6000803e3d6000fd5b505050506040513d602081101561141d57600080fd5b50516001600160a01b038a8116911614156115645761144281610e54856103e8611699565b611458836114528a6103e5611699565b90611699565b8161145f57fe5b0494506114766001600160a01b038a168589610a8d565b604080516000808252602082019283905263022c0d9f60e01b835260248201818152604483018990526001600160a01b038a81166064850152608060848501908152845160a48601819052918a169563022c0d9f958c948e9491939092909160c4850191908083838b5b838110156114f85781810151838201526020016114e0565b50505050905090810190601f1680156115255780820380516001836020036101000a031916815260200191505b5095505050505050600060405180830381600087803b15801561154757600080fd5b505af115801561155b573d6000803e3d6000fd5b5050505061168d565b61157481610e54846103e8611699565b611584846114528a6103e5611699565b8161158b57fe5b0494506115a26001600160a01b038a168589610a8d565b604080516000808252602082019283905263022c0d9f60e01b835260248201888152604483018290526001600160a01b038a81166064850152608060848501908152845160a48601819052918a169563022c0d9f958c95948e9491939092909160c4850191908083838a5b8381101561162557818101518382015260200161160d565b50505050905090810190601f1680156116525780820380516001836020036101000a031916815260200191505b5095505050505050600060405180830381600087803b15801561167457600080fd5b505af1158015611688573d6000803e3d6000fd5b505050505b50505050949350505050565b60008115806116b4575050808202828282816116b157fe5b04145b61114f576040805162461bcd60e51b8152602060048201526016602482015275536166654d6174683a204d756c204f766572666c6f7760501b604482015290519081900360640190fdfea26469706673582212205632da3a0873fbf45c7588eb6b141e6df804de3f9d53576d08c8d8db29b4862964736f6c634300060c0033",
  "immutableReferences": {
    "4321": [
      {
        "length": 32,
        "start": 1886
      },
      {
        "length": 32,
        "start": 1939
      },
      {
        "length": 32,
        "start": 4639
      }
    ],
    "4323": [
      {
        "length": 32,
        "start": 1402
      },
      {
        "length": 32,
        "start": 3107
      },
      {
        "length": 32,
        "start": 3202
      },
      {
        "length": 32,
        "start": 3464
      },
      {
        "length": 32,
        "start": 3559
      },
      {
        "length": 32,
        "start": 3683
      },
      {
        "length": 32,
        "start": 3778
      },
      {
        "length": 32,
        "start": 4445
      },
      {
        "length": 32,
        "start": 4487
      }
    ],
    "4325": [
      {
        "length": 32,
        "start": 1463
      },
      {
        "length": 32,
        "start": 1749
      },
      {
        "length": 32,
        "start": 3307
      },
      {
        "length": 32,
        "start": 3368
      },
      {
        "length": 32,
        "start": 3889
      },
      {
        "length": 32,
        "start": 3950
      },
      {
        "length": 32,
        "start": 3991
      },
      {
        "length": 32,
        "start": 4036
      },
      {
        "length": 32,
        "start": 4097
      },
      {
        "length": 32,
        "start": 4138
      }
    ]
  },
  "source": "// SPDX-License-Identifier: MIT\r\npragma solidity 0.6.12;\r\n\r\nimport \"./libraries/SafeMath.sol\";\r\nimport \"./libraries/SafeERC20.sol\";\r\nimport \"./interfaces/IERC20Burnable.sol\";\r\nimport \"./uniswapv2/interfaces/IUniswapV2ERC20.sol\";\r\nimport \"./uniswapv2/interfaces/IUniswapV2Pair.sol\";\r\nimport \"./uniswapv2/interfaces/IUniswapV2Factory.sol\";\r\n\r\nimport \"./Ownable.sol\";\r\n\r\ncontract OxSwapMaker is Ownable {\r\n    using SafeMath for uint256;\r\n    using SafeERC20 for IERC20;\r\n\r\n    IUniswapV2Factory public immutable factory;\r\n    address private immutable oxst;\r\n    address private immutable weth;\r\n\r\n    mapping(address => address) internal _bridges;\r\n\r\n    event LogBridgeSet(address indexed token, address indexed bridge);\r\n    event LogConvert(address indexed server, address indexed token0, address indexed token1, uint256 amount0, uint256 amount1, uint256 amountOXST);\r\n\r\n    constructor (address _factory, address _oxst, address _weth) public {\r\n       factory = IUniswapV2Factory(_factory);\r\n       oxst = _oxst;\r\n       weth = _weth;\r\n    }\r\n\r\n    function bridgeFor(address token) public view returns (address bridge) {\r\n        bridge = _bridges[token];\r\n        if (bridge == address(0)) {\r\n            bridge = weth;\r\n        }\r\n    }\r\n\r\n    function setBridge(address token, address bridge) external onlyOwner {\r\n        require(token != oxst && token != weth && token != bridge, \"OxSwap Maker: Invalid bridge\");\r\n        _bridges[token] = bridge;\r\n        emit LogBridgeSet(token, bridge);\r\n    }\r\n\r\n    modifier onlyEOA() {\r\n        require(msg.sender == tx.origin, \"OxSwap Maker: must use EOA\");\r\n        _;\r\n    }\r\n\r\n    function convert(address token0, address token1) external onlyEOA() {\r\n        _convert(token0, token1);\r\n    }\r\n\r\n    function convertMultiple(address[] calldata token0, address[] calldata token1) external onlyEOA() {\r\n        uint256 len = token0.length;\r\n        for(uint256 i=0; i < len; i++) {\r\n            _convert(token0[i], token1[i]);\r\n        }\r\n    }\r\n\r\n    function _convert(address token0, address token1) internal {\r\n        IUniswapV2Pair pair = IUniswapV2Pair(factory.getPair(token0, token1));\r\n        require(address(pair) != address(0), \"OxSwap Maker: Invalid pair\");\r\n        IERC20(address(pair)).safeTransfer(address(pair), pair.balanceOf(address(this)));\r\n        (uint256 amount0, uint256 amount1) = pair.burn(address(this));\r\n        if (token0 != pair.token0()) {\r\n            (amount0, amount1) = (amount1, amount0);\r\n        }\r\n        emit LogConvert(msg.sender, token0, token1, amount0, amount1, _convertStep(token0, token1, amount0, amount1));\r\n    }\r\n\r\n    function _convertStep(address token0, address token1, uint256 amount0, uint256 amount1) internal returns(uint256 oxstOut) {\r\n        if (token0 == token1) {\r\n            uint256 amount = amount0.add(amount1);\r\n            if (token0 == oxst) {\r\n                IERC20BURNABLE(oxst).burn(address(this), amount);\r\n                oxstOut = amount;\r\n            } else if (token0 == weth) {\r\n                oxstOut = _toOXST(weth, amount);\r\n            } else {\r\n                address bridge = bridgeFor(token0);\r\n                amount = _swap(token0, bridge, amount, address(this));\r\n                oxstOut = _convertStep(bridge, bridge, amount, 0);\r\n            }\r\n        } else if (token0 == oxst) {\r\n            IERC20BURNABLE(oxst).burn(address(this), amount0); \r\n            oxstOut = _toOXST(token1, amount1).add(amount0);\r\n        } else if (token1 == oxst) { \r\n            IERC20BURNABLE(oxst).burn(address(this), amount1); \r\n            oxstOut = _toOXST(token0, amount0).add(amount1); \r\n        } else if (token0 == weth) { \r\n            oxstOut = _toOXST(weth, _swap(token1, weth, amount1, address(this)).add(amount0));\r\n        } else if (token1 == weth) { \r\n            oxstOut = _toOXST(weth, _swap(token0, weth, amount0, address(this)).add(amount1));\r\n        } else { \r\n            address bridge0 = bridgeFor(token0);\r\n            address bridge1 = bridgeFor(token1);\r\n            if (bridge0 == token1) { \r\n                oxstOut = _convertStep(bridge0, token1,\r\n                    _swap(token0, bridge0, amount0, address(this)),\r\n                    amount1\r\n                );\r\n            } else if (bridge1 == token0) { \r\n                oxstOut = _convertStep(token0, bridge1,\r\n                    amount0,\r\n                    _swap(token1, bridge1, amount1, address(this))\r\n                );\r\n            } else {\r\n                oxstOut = _convertStep(bridge0, bridge1, \r\n                    _swap(token0, bridge0, amount0, address(this)),\r\n                    _swap(token1, bridge1, amount1, address(this))\r\n                );\r\n            }\r\n        }\r\n    }\r\n\r\n    function _swap(address fromToken, address toToken, uint256 amountIn, address to) internal returns (uint256 amountOut) {\r\n        IUniswapV2Pair pair = IUniswapV2Pair(factory.getPair(fromToken, toToken));\r\n        require(address(pair) != address(0), \"OxSwap Maker: Cannot convert\");\r\n        (uint256 reserve0, uint256 reserve1,) = pair.getReserves();\r\n        uint256 amountInWithFee = amountIn.mul(997);\r\n        if (fromToken == pair.token0()) {\r\n            amountOut = amountIn.mul(997).mul(reserve1) / reserve0.mul(1000).add(amountInWithFee);\r\n            IERC20(fromToken).safeTransfer(address(pair), amountIn);\r\n            pair.swap(0, amountOut, to, new bytes(0));\r\n        } else {\r\n            amountOut = amountIn.mul(997).mul(reserve0) / reserve1.mul(1000).add(amountInWithFee);\r\n            IERC20(fromToken).safeTransfer(address(pair), amountIn);\r\n            pair.swap(amountOut, 0, to, new bytes(0));\r\n        }\r\n    }\r\n\r\n    function _toOXST(address token, uint256 amountIn) internal returns(uint256 amountOut) {\r\n        amountOut = _swap(token, oxst, amountIn, address(this));\r\n        IERC20BURNABLE(oxst).burn(address(this), amountOut);\r\n    }\r\n}\r\n",
  "sourcePath": "/opt/oxswap/latest/oxswap-core/contracts/OxSwapMaker.sol",
  "compiler": {
    "name": "solc",
    "version": "0.6.12+commit.27d51765.Emscripten.clang"
  },
  "schemaVersion": "3.4.4",
  "updatedAt": "2022-02-05T16:32:29.570Z",
  "networkType": "ethereum",
  "devdoc": {
    "kind": "dev",
    "methods": {},
    "version": 1
  },
  "userdoc": {
    "kind": "user",
    "methods": {},
    "version": 1
  }
}