{
  "contractName": "OxSwapBridge",
  "abi": [
    {
      "inputs": [
        {
          "internalType": "contract IERC20",
          "name": "_oxswapV1",
          "type": "address"
        },
        {
          "internalType": "contract OxSwapToken",
          "name": "_oxswapV2",
          "type": "address"
        }
      ],
      "stateMutability": "nonpayable",
      "type": "constructor"
    },
    {
      "anonymous": false,
      "inputs": [
        {
          "indexed": true,
          "internalType": "address",
          "name": "user",
          "type": "address"
        },
        {
          "indexed": false,
          "internalType": "uint256",
          "name": "amount",
          "type": "uint256"
        }
      ],
      "name": "Bridge",
      "type": "event"
    },
    {
      "inputs": [],
      "name": "burnAddress",
      "outputs": [
        {
          "internalType": "address",
          "name": "",
          "type": "address"
        }
      ],
      "stateMutability": "view",
      "type": "function",
      "constant": true
    },
    {
      "inputs": [],
      "name": "oxswapV1",
      "outputs": [
        {
          "internalType": "contract IERC20",
          "name": "",
          "type": "address"
        }
      ],
      "stateMutability": "view",
      "type": "function",
      "constant": true
    },
    {
      "inputs": [],
      "name": "oxswapV2",
      "outputs": [
        {
          "internalType": "contract OxSwapToken",
          "name": "",
          "type": "address"
        }
      ],
      "stateMutability": "view",
      "type": "function",
      "constant": true
    },
    {
      "inputs": [
        {
          "internalType": "uint256",
          "name": "_amount",
          "type": "uint256"
        }
      ],
      "name": "convert",
      "outputs": [],
      "stateMutability": "nonpayable",
      "type": "function"
    }
  ],
  "bytecode": "0x6080604052600380546001600160a01b03191661dead60901b17905534801561002757600080fd5b506040516103d13803806103d18339818101604052604081101561004a57600080fd5b5080516020909101516001600081905580546001600160a01b039384166001600160a01b0319918216179091556002805493909216921691909117905561033b806100966000396000f3fe608060405234801561001057600080fd5b506004361061004c5760003560e01c806370d5ae051461005157806383fa950914610075578063a08e562f1461007d578063a3908e1b14610085575b600080fd5b6100596100a4565b604080516001600160a01b039092168252519081900360200190f35b6100596100b3565b6100596100c2565b6100a26004803603602081101561009b57600080fd5b50356100d1565b005b6003546001600160a01b031681565b6002546001600160a01b031681565b6001546001600160a01b031681565b60026000541415610129576040805162461bcd60e51b815260206004820152601f60248201527f5265656e7472616e637947756172643a207265656e7472616e742063616c6c00604482015290519081900360640190fd5b6002600055333214610182576040805162461bcd60e51b815260206004820152601760248201527f4d7573742062652063616c6c6564206469726563746c79000000000000000000604482015290519081900360640190fd5b600154600354604080516323b872dd60e01b81523360048201526001600160a01b03928316602482015260448101859052905160009392909216916323b872dd9160648082019260209290919082900301818787803b1580156101e457600080fd5b505af11580156101f8573d6000803e3d6000fd5b505050506040513d602081101561020e57600080fd5b5051905060018115151461025b576040805162461bcd60e51b815260206004820152600f60248201526e1d1c985b9cd9995c8819985a5b1959608a1b604482015290519081900360640190fd5b600254604080516346154c9f60e11b81523360048201526024810185905290516001600160a01b0390921691638c2a993e9160448082019260009290919082900301818387803b1580156102ae57600080fd5b505af11580156102c2573d6000803e3d6000fd5b50506040805185815290513393507f22e3f162fca16dc0fcfb65eddf406531a0c555a2c24c58cf5d10fc2d202a882e92509081900360200190a25050600160005556fea26469706673582212203764a5f3f42c01f1a94fd7a9b8ff39721cc14499c5e88dbcd8034cab913ec1c764736f6c634300060c0033",
  "immutableReferences": {},
  "source": "// SPDX-License-Identifier: MIT\n\npragma solidity 0.6.12;\n\nimport \"@openzeppelin/contracts/token/ERC20/IERC20.sol\";\nimport \"@openzeppelin/contracts/utils/ReentrancyGuard.sol\";\nimport \"./OxSwapToken.sol\";\n\n\ncontract OxSwapBridge is ReentrancyGuard {\n\tIERC20 public oxswapV1;\n\tOxSwapToken public oxswapV2;\n\taddress public burnAddress = 0xdEad000000000000000000000000000000000000;\n\n\tconstructor(IERC20 _oxswapV1, OxSwapToken _oxswapV2) public {\n\t\toxswapV1 = _oxswapV1;\n\t\toxswapV2 = _oxswapV2;\n\t}\n\n\tevent Bridge(address indexed user, uint amount);\n\n\tfunction convert(uint256 _amount) public nonReentrant {\n\t\trequire(msg.sender == tx.origin, \"Must be called directly\");\n\n\t\tbool success = false;\n\n\t\tsuccess = oxswapV1.transferFrom(msg.sender, burnAddress, _amount);\n\n\t\trequire(success == true, 'transfer failed');\n\n\t\toxswapV2.bridgeMint(msg.sender, _amount);\n\t\temit Bridge(msg.sender, _amount);\n\t\t\n\t}\n}",
  "sourcePath": "/opt/oxswap/latest/oxswap-core/contracts/OxSwapBridge.sol",
  "compiler": {
    "name": "solc",
    "version": "0.6.12+commit.27d51765.Emscripten.clang"
  },
  "schemaVersion": "3.4.4",
  "updatedAt": "2022-02-05T16:32:29.564Z",
  "networkType": "ethereum",
  "devdoc": {
    "kind": "dev",
    "methods": {},
    "version": 1
  },
  "userdoc": {
    "kind": "user",
    "methods": {},
    "version": 1
  }
}